{
  "_format": "hh-sol-artifact-1",
  "contractName": "Broker",
  "sourceName": "contracts/Broker.sol",
  "abi": [
    {
      "inputs": [
        {
          "internalType": "address",
          "name": "_router",
          "type": "address"
        },
        {
          "internalType": "address",
          "name": "_admin",
          "type": "address"
        }
      ],
      "stateMutability": "nonpayable",
      "type": "constructor"
    },
    {
      "anonymous": false,
      "inputs": [
        {
          "indexed": true,
          "internalType": "uint256",
          "name": "orderId",
          "type": "uint256"
        }
      ],
      "name": "PaymentSuccess",
      "type": "event"
    },
    {
      "anonymous": false,
      "inputs": [
        {
          "indexed": false,
          "internalType": "uint256",
          "name": "orderId",
          "type": "uint256"
        },
        {
          "indexed": false,
          "internalType": "address",
          "name": "merchant",
          "type": "address"
        },
        {
          "indexed": false,
          "internalType": "address",
          "name": "inputToken",
          "type": "address"
        },
        {
          "indexed": false,
          "internalType": "address",
          "name": "outputToken",
          "type": "address"
        },
        {
          "indexed": false,
          "internalType": "uint256",
          "name": "amountIn",
          "type": "uint256"
        },
        {
          "indexed": false,
          "internalType": "uint256",
          "name": "amountOutMin",
          "type": "uint256"
        }
      ],
      "name": "Purchase",
      "type": "event"
    },
    {
      "anonymous": false,
      "inputs": [
        {
          "indexed": false,
          "internalType": "address",
          "name": "token",
          "type": "address"
        },
        {
          "indexed": false,
          "internalType": "uint256",
          "name": "amount",
          "type": "uint256"
        },
        {
          "indexed": false,
          "internalType": "address",
          "name": "beneficiary",
          "type": "address"
        }
      ],
      "name": "WithdrewFee",
      "type": "event"
    },
    {
      "inputs": [],
      "name": "admin",
      "outputs": [
        {
          "internalType": "address",
          "name": "",
          "type": "address"
        }
      ],
      "stateMutability": "view",
      "type": "function"
    },
    {
      "inputs": [
        {
          "internalType": "address",
          "name": "token",
          "type": "address"
        },
        {
          "internalType": "uint256",
          "name": "amount",
          "type": "uint256"
        },
        {
          "internalType": "address",
          "name": "beneficiary",
          "type": "address"
        }
      ],
      "name": "collectFee",
      "outputs": [],
      "stateMutability": "nonpayable",
      "type": "function"
    },
    {
      "inputs": [],
      "name": "fee",
      "outputs": [
        {
          "internalType": "uint256",
          "name": "",
          "type": "uint256"
        }
      ],
      "stateMutability": "view",
      "type": "function"
    },
    {
      "inputs": [],
      "name": "feeDecimals",
      "outputs": [
        {
          "internalType": "uint256",
          "name": "",
          "type": "uint256"
        }
      ],
      "stateMutability": "view",
      "type": "function"
    },
    {
      "inputs": [
        {
          "internalType": "address",
          "name": "",
          "type": "address"
        }
      ],
      "name": "feeReserves",
      "outputs": [
        {
          "internalType": "uint256",
          "name": "",
          "type": "uint256"
        }
      ],
      "stateMutability": "view",
      "type": "function"
    },
    {
      "inputs": [
        {
          "internalType": "address",
          "name": "_tokenIn",
          "type": "address"
        },
        {
          "internalType": "address",
          "name": "_tokenOut",
          "type": "address"
        },
        {
          "internalType": "uint256",
          "name": "_amountOut",
          "type": "uint256"
        }
      ],
      "name": "getAmountsIn",
      "outputs": [
        {
          "internalType": "uint256",
          "name": "",
          "type": "uint256"
        }
      ],
      "stateMutability": "view",
      "type": "function"
    },
    {
      "inputs": [
        {
          "internalType": "uint256",
          "name": "",
          "type": "uint256"
        }
      ],
      "name": "orders",
      "outputs": [
        {
          "internalType": "bool",
          "name": "",
          "type": "bool"
        }
      ],
      "stateMutability": "view",
      "type": "function"
    },
    {
      "inputs": [
        {
          "internalType": "uint256",
          "name": "orderId",
          "type": "uint256"
        },
        {
          "internalType": "address",
          "name": "merchant",
          "type": "address"
        },
        {
          "internalType": "address",
          "name": "inputToken",
          "type": "address"
        },
        {
          "internalType": "address",
          "name": "outputToken",
          "type": "address"
        },
        {
          "internalType": "uint256",
          "name": "amountIn",
          "type": "uint256"
        },
        {
          "internalType": "uint256",
          "name": "amountOutMin",
          "type": "uint256"
        },
        {
          "internalType": "uint256",
          "name": "deadline",
          "type": "uint256"
        }
      ],
      "name": "purchase",
      "outputs": [],
      "stateMutability": "nonpayable",
      "type": "function"
    },
    {
      "inputs": [],
      "name": "shifter",
      "outputs": [
        {
          "internalType": "uint256",
          "name": "",
          "type": "uint256"
        }
      ],
      "stateMutability": "view",
      "type": "function"
    }
  ],
  "bytecode": "0x60806040526004600055600054600a6200001a919062000192565b600155601e6002553480156200002f57600080fd5b5060405162001b0538038062001b058339818101604052810190620000559190620000f6565b81600460006101000a81548173ffffffffffffffffffffffffffffffffffffffff021916908373ffffffffffffffffffffffffffffffffffffffff16021790555080600560006101000a81548173ffffffffffffffffffffffffffffffffffffffff021916908373ffffffffffffffffffffffffffffffffffffffff160217905550505062000363565b600081519050620000f08162000349565b92915050565b600080604083850312156200010a57600080fd5b60006200011a85828601620000df565b92505060206200012d85828601620000df565b9150509250929050565b6000808291508390505b600185111562000189578086048111156200016157620001606200030d565b5b6001851615620001715780820291505b808102905062000181856200033c565b945062000141565b94509492505050565b60006200019f8262000303565b9150620001ac8362000303565b9250620001db7fffffffffffffffffffffffffffffffffffffffffffffffffffffffffffffffff8484620001e3565b905092915050565b600082620001f55760019050620002c8565b81620002055760009050620002c8565b81600181146200021e576002811462000229576200025f565b6001915050620002c8565b60ff8411156200023e576200023d6200030d565b5b8360020a9150848211156200025857620002576200030d565b5b50620002c8565b5060208310610133831016604e8410600b8410161715620002995782820a9050838111156200029357620002926200030d565b5b620002c8565b620002a8848484600162000137565b92509050818404811115620002c257620002c16200030d565b5b81810290505b9392505050565b6000620002dc82620002e3565b9050919050565b600073ffffffffffffffffffffffffffffffffffffffff82169050919050565b6000819050919050565b7f4e487b7100000000000000000000000000000000000000000000000000000000600052601160045260246000fd5b60008160011c9050919050565b6200035481620002cf565b81146200036057600080fd5b50565b61179280620003736000396000f3fe608060405234801561001057600080fd5b50600436106100935760003560e01c8063cc0f178611610066578063cc0f178614610132578063d136098d14610150578063ddca3f4314610180578063eb78b4351461019e578063f851a440146101ba57610093565b80631ce9cb8f14610098578063707ed02b146100c85780639ee572d7146100e6578063a85c38ef14610102575b600080fd5b6100b260048036038101906100ad9190610e8f565b6101d8565b6040516100bf91906112cf565b60405180910390f35b6100d06101f0565b6040516100dd91906112cf565b60405180910390f35b61010060048036038101906100fb9190610fe9565b6101f6565b005b61011c60048036038101906101179190610fc0565b6104f0565b6040516101299190611254565b60405180910390f35b61013a610510565b60405161014791906112cf565b60405180910390f35b61016a60048036038101906101659190610eb8565b610516565b60405161017791906112cf565b60405180910390f35b610188610778565b60405161019591906112cf565b60405180910390f35b6101b860048036038101906101b39190610f07565b61077e565b005b6101c26109c5565b6040516101cf91906111a2565b60405180910390f35b60036020528060005260406000206000915090505481565b60015481565b600015156006600089815260200190815260200160002060009054906101000a900460ff1615151461025d576040517f08c379a00000000000000000000000000000000000000000000000000000000081526004016102549061128f565b60405180910390fd5b804211156102a0576040517f08c379a0000000000000000000000000000000000000000000000000000000008152600401610297906112af565b60405180910390fd5b60016006600089815260200190815260200160002060006101000a81548160ff0219169083151502179055508373ffffffffffffffffffffffffffffffffffffffff168573ffffffffffffffffffffffffffffffffffffffff16141561041c5760006001546002548561031391906114f7565b61031d91906114c6565b90506000818561032d9190611551565b90508673ffffffffffffffffffffffffffffffffffffffff166323b872dd338a846040518463ffffffff1660e01b815260040161036c939291906111bd565b602060405180830381600087803b15801561038657600080fd5b505af115801561039a573d6000803e3d6000fd5b505050506040513d601f19601f820116820180604052508101906103be9190610f97565b5081600360008973ffffffffffffffffffffffffffffffffffffffff1673ffffffffffffffffffffffffffffffffffffffff168152602001908152602001600020600082825461040e9190611470565b9250508190555050506104a6565b600061042c868685878b876109eb565b905060006001546002548361044191906114f7565b61044b91906114c6565b905080600360008873ffffffffffffffffffffffffffffffffffffffff1673ffffffffffffffffffffffffffffffffffffffff168152602001908152602001600020600082825461049c9190611470565b9250508190555050505b7fbbd79f4a179872aa243e38ed17f5018151daf67b4c5d3aa780ae62d04180e2768787878787876040516104df969594939291906112ea565b60405180910390a150505050505050565b60066020528060005260406000206000915054906101000a900460ff1681565b60005481565b600080600267ffffffffffffffff81111561055a577f4e487b7100000000000000000000000000000000000000000000000000000000600052604160045260246000fd5b6040519080825280602002602001820160405280156105885781602001602082028036833780820191505090505b50905084816000815181106105c6577f4e487b7100000000000000000000000000000000000000000000000000000000600052603260045260246000fd5b602002602001019073ffffffffffffffffffffffffffffffffffffffff16908173ffffffffffffffffffffffffffffffffffffffff1681525050838160018151811061063b577f4e487b7100000000000000000000000000000000000000000000000000000000600052603260045260246000fd5b602002602001019073ffffffffffffffffffffffffffffffffffffffff16908173ffffffffffffffffffffffffffffffffffffffff16815250506000600460009054906101000a900473ffffffffffffffffffffffffffffffffffffffff1673ffffffffffffffffffffffffffffffffffffffff16631f00ca7485846040518363ffffffff1660e01b81526004016106d492919061134b565b60006040518083038186803b1580156106ec57600080fd5b505afa158015610700573d6000803e3d6000fd5b505050506040513d6000823e3d601f19601f820116820180604052508101906107299190610f56565b905080600081518110610765577f4e487b7100000000000000000000000000000000000000000000000000000000600052603260045260246000fd5b6020026020010151925050509392505050565b60025481565b600560009054906101000a900473ffffffffffffffffffffffffffffffffffffffff1673ffffffffffffffffffffffffffffffffffffffff163373ffffffffffffffffffffffffffffffffffffffff161461080e576040517f08c379a00000000000000000000000000000000000000000000000000000000081526004016108059061126f565b60405180910390fd5b6000600360008573ffffffffffffffffffffffffffffffffffffffff1673ffffffffffffffffffffffffffffffffffffffff1681526020019081526020016000205483101561085d578261089e565b600360008573ffffffffffffffffffffffffffffffffffffffff1673ffffffffffffffffffffffffffffffffffffffff168152602001908152602001600020545b90508373ffffffffffffffffffffffffffffffffffffffff1663a9059cbb83836040518363ffffffff1660e01b81526004016108db9291906111f4565b602060405180830381600087803b1580156108f557600080fd5b505af1158015610909573d6000803e3d6000fd5b505050506040513d601f19601f8201168201806040525081019061092d9190610f97565b5080600360008673ffffffffffffffffffffffffffffffffffffffff1673ffffffffffffffffffffffffffffffffffffffff168152602001908152602001600020600082825461097d9190611551565b925050819055507fd6b2a052e02858ea31a32b934b946bbe36ebc3751e28608999bb5105efc36c188482846040516109b79392919061121d565b60405180910390a150505050565b600560009054906101000a900473ffffffffffffffffffffffffffffffffffffffff1681565b60008673ffffffffffffffffffffffffffffffffffffffff166323b872dd3330876040518463ffffffff1660e01b8152600401610a2a939291906111bd565b602060405180830381600087803b158015610a4457600080fd5b505af1158015610a58573d6000803e3d6000fd5b505050506040513d601f19601f82011682018060405250810190610a7c9190610f97565b508673ffffffffffffffffffffffffffffffffffffffff1663095ea7b3600460009054906101000a900473ffffffffffffffffffffffffffffffffffffffff16866040518363ffffffff1660e01b8152600401610ada9291906111f4565b602060405180830381600087803b158015610af457600080fd5b505af1158015610b08573d6000803e3d6000fd5b505050506040513d601f19601f82011682018060405250810190610b2c9190610f97565b506000600267ffffffffffffffff811115610b70577f4e487b7100000000000000000000000000000000000000000000000000000000600052604160045260246000fd5b604051908082528060200260200182016040528015610b9e5781602001602082028036833780820191505090505b5090508781600081518110610bdc577f4e487b7100000000000000000000000000000000000000000000000000000000600052603260045260246000fd5b602002602001019073ffffffffffffffffffffffffffffffffffffffff16908173ffffffffffffffffffffffffffffffffffffffff16815250508681600181518110610c51577f4e487b7100000000000000000000000000000000000000000000000000000000600052603260045260246000fd5b602002602001019073ffffffffffffffffffffffffffffffffffffffff16908173ffffffffffffffffffffffffffffffffffffffff16815250506000600460009054906101000a900473ffffffffffffffffffffffffffffffffffffffff1673ffffffffffffffffffffffffffffffffffffffff16638803dbee88888589896040518663ffffffff1660e01b8152600401610cf095949392919061137b565b600060405180830381600087803b158015610d0a57600080fd5b505af1158015610d1e573d6000803e3d6000fd5b505050506040513d6000823e3d601f19601f82011682018060405250810190610d479190610f56565b90508060018251610d589190611551565b81518110610d8f577f4e487b7100000000000000000000000000000000000000000000000000000000600052603260045260246000fd5b6020026020010151925050509695505050505050565b6000610db8610db3846113fa565b6113d5565b90508083825260208201905082856020860282011115610dd757600080fd5b60005b85811015610e075781610ded8882610e7a565b845260208401935060208301925050600181019050610dda565b5050509392505050565b600081359050610e2081611717565b92915050565b600082601f830112610e3757600080fd5b8151610e47848260208601610da5565b91505092915050565b600081519050610e5f8161172e565b92915050565b600081359050610e7481611745565b92915050565b600081519050610e8981611745565b92915050565b600060208284031215610ea157600080fd5b6000610eaf84828501610e11565b91505092915050565b600080600060608486031215610ecd57600080fd5b6000610edb86828701610e11565b9350506020610eec86828701610e11565b9250506040610efd86828701610e65565b9150509250925092565b600080600060608486031215610f1c57600080fd5b6000610f2a86828701610e11565b9350506020610f3b86828701610e65565b9250506040610f4c86828701610e11565b9150509250925092565b600060208284031215610f6857600080fd5b600082015167ffffffffffffffff811115610f8257600080fd5b610f8e84828501610e26565b91505092915050565b600060208284031215610fa957600080fd5b6000610fb784828501610e50565b91505092915050565b600060208284031215610fd257600080fd5b6000610fe084828501610e65565b91505092915050565b600080600080600080600060e0888a03121561100457600080fd5b60006110128a828b01610e65565b97505060206110238a828b01610e11565b96505060406110348a828b01610e11565b95505060606110458a828b01610e11565b94505060806110568a828b01610e65565b93505060a06110678a828b01610e65565b92505060c06110788a828b01610e65565b91505092959891949750929550565b6000611093838361109f565b60208301905092915050565b6110a881611585565b82525050565b6110b781611585565b82525050565b60006110c882611436565b6110d2818561144e565b93506110dd83611426565b8060005b8381101561110e5781516110f58882611087565b975061110083611441565b9250506001810190506110e1565b5085935050505092915050565b61112481611597565b82525050565b6000611137600d8361145f565b91506111428261169c565b602082019050919050565b600061115a60138361145f565b9150611165826116c5565b602082019050919050565b600061117d601b8361145f565b9150611188826116ee565b602082019050919050565b61119c816115c3565b82525050565b60006020820190506111b760008301846110ae565b92915050565b60006060820190506111d260008301866110ae565b6111df60208301856110ae565b6111ec6040830184611193565b949350505050565b600060408201905061120960008301856110ae565b6112166020830184611193565b9392505050565b600060608201905061123260008301866110ae565b61123f6020830185611193565b61124c60408301846110ae565b949350505050565b6000602082019050611269600083018461111b565b92915050565b600060208201905081810360008301526112888161112a565b9050919050565b600060208201905081810360008301526112a88161114d565b9050919050565b600060208201905081810360008301526112c881611170565b9050919050565b60006020820190506112e46000830184611193565b92915050565b600060c0820190506112ff6000830189611193565b61130c60208301886110ae565b61131960408301876110ae565b61132660608301866110ae565b6113336080830185611193565b61134060a0830184611193565b979650505050505050565b60006040820190506113606000830185611193565b818103602083015261137281846110bd565b90509392505050565b600060a0820190506113906000830188611193565b61139d6020830187611193565b81810360408301526113af81866110bd565b90506113be60608301856110ae565b6113cb6080830184611193565b9695505050505050565b60006113df6113f0565b90506113eb82826115cd565b919050565b6000604051905090565b600067ffffffffffffffff8211156114155761141461165c565b5b602082029050602081019050919050565b6000819050602082019050919050565b600081519050919050565b6000602082019050919050565b600082825260208201905092915050565b600082825260208201905092915050565b600061147b826115c3565b9150611486836115c3565b9250827fffffffffffffffffffffffffffffffffffffffffffffffffffffffffffffffff038211156114bb576114ba6115fe565b5b828201905092915050565b60006114d1826115c3565b91506114dc836115c3565b9250826114ec576114eb61162d565b5b828204905092915050565b6000611502826115c3565b915061150d836115c3565b9250817fffffffffffffffffffffffffffffffffffffffffffffffffffffffffffffffff0483118215151615611546576115456115fe565b5b828202905092915050565b600061155c826115c3565b9150611567836115c3565b92508282101561157a576115796115fe565b5b828203905092915050565b6000611590826115a3565b9050919050565b60008115159050919050565b600073ffffffffffffffffffffffffffffffffffffffff82169050919050565b6000819050919050565b6115d68261168b565b810181811067ffffffffffffffff821117156115f5576115f461165c565b5b80604052505050565b7f4e487b7100000000000000000000000000000000000000000000000000000000600052601160045260246000fd5b7f4e487b7100000000000000000000000000000000000000000000000000000000600052601260045260246000fd5b7f4e487b7100000000000000000000000000000000000000000000000000000000600052604160045260246000fd5b6000601f19601f8301169050919050565b7f6d7573742062652061646d696e00000000000000000000000000000000000000600082015250565b7f4f726465722077617320636f6d706c6574656400000000000000000000000000600082015250565b7f4f726465722077617320657863656564656420646561646c696e650000000000600082015250565b61172081611585565b811461172b57600080fd5b50565b61173781611597565b811461174257600080fd5b50565b61174e816115c3565b811461175957600080fd5b5056fea26469706673582212202f069005d80a84252eb349a65907020d21aacffcb08152119868c9ea2acb71cf64736f6c63430008040033",
  "linkReferences": {},
  "deployedLinkReferences": {}
}